{
  "contractName": "MockContract",
  "abi": [
    {
      "constant": true,
      "inputs": [],
      "name": "foo",
      "outputs": [
        {
          "name": "",
          "type": "string"
        }
      ],
      "payable": false,
      "stateMutability": "view",
      "type": "function"
    },
    {
      "constant": false,
      "inputs": [
        {
          "name": "_foo",
          "type": "string"
        }
      ],
      "name": "setFoo",
      "outputs": [
        {
          "name": "",
          "type": "string"
        }
      ],
      "payable": false,
      "stateMutability": "nonpayable",
      "type": "function"
    }
  ],
  "bytecode": "0x608060405234801561001057600080fd5b5061044c806100206000396000f3fe60806040526004361061004c576000357c0100000000000000000000000000000000000000000000000000000000900463ffffffff168063c298557814610051578063cfcb1566146100e1575b600080fd5b34801561005d57600080fd5b50610066610222565b6040518080602001828103825283818151815260200191508051906020019080838360005b838110156100a657808201518184015260208101905061008b565b50505050905090810190601f1680156100d35780820380516001836020036101000a031916815260200191505b509250505060405180910390f35b3480156100ed57600080fd5b506101a76004803603602081101561010457600080fd5b810190808035906020019064010000000081111561012157600080fd5b82018360208201111561013357600080fd5b8035906020019184600183028401116401000000008311171561015557600080fd5b91908080601f016020809104026020016040519081016040528093929190818152602001838380828437600081840152601f19601f8201169050808301925050505050505091929192905050506102c0565b6040518080602001828103825283818151815260200191508051906020019080838360005b838110156101e75780820151818401526020810190506101cc565b50505050905090810190601f1680156102145780820380516001836020036101000a031916815260200191505b509250505060405180910390f35b60008054600181600116156101000203166002900480601f0160208091040260200160405190810160405280929190818152602001828054600181600116156101000203166002900480156102b85780601f1061028d576101008083540402835291602001916102b8565b820191906000526020600020905b81548152906001019060200180831161029b57829003601f168201915b505050505081565b606081600090805190602001906102d892919061037b565b5060008054600181600116156101000203166002900480601f01602080910402602001604051908101604052809291908181526020018280546001816001161561010002031660029004801561036f5780601f106103445761010080835404028352916020019161036f565b820191906000526020600020905b81548152906001019060200180831161035257829003601f168201915b50505050509050919050565b828054600181600116156101000203166002900490600052602060002090601f016020900481019282601f106103bc57805160ff19168380011785556103ea565b828001600101855582156103ea579182015b828111156103e95782518255916020019190600101906103ce565b5b5090506103f791906103fb565b5090565b61041d91905b80821115610419576000816000905550600101610401565b5090565b9056fea165627a7a72305820ac6f1078943439921bed134a6d1a8f037c1455c803b0804cf85b43a7298c5eeb0029",
  "source": "pragma solidity ^0.5.0;\n\ncontract MockContract {\n\n  string public foo;\n  function setFoo(string memory _foo) public returns (string memory) {\n    foo = _foo;\n    return foo;\n  }\n}\n",
  "sourcePath": "/home/jota/work/zeppelin/zos/tests/lib-app/contracts/MockContract.sol",
  "compiler": {
    "name": "solc",
    "version": "0.5.0+commit.1d4f565a.Emscripten.clang"
  },
  "schemaVersion": "3.0.1",
  "updatedAt": "2019-02-11T00:19:41.218Z",
  "devdoc": {
    "methods": {}
  },
  "userdoc": {
    "methods": {}
  }
}